:100000000C9480000C9492000C9492000C9492003A
:100010000C9492000C9492000C9492000C94920018
:100020000C9492000C9492000C9492000C94920008
:100030000C9492000C94DD030C9492000C949200AA
:100040000C9492000C9492000C9492000C949200E8
:100050000C949200303132333435363738394142DE
:10006000434445460D0A0D0A2A2A2A2A2A2A2A2A00
:100070002A2A2053454431333330202B203430306A
:100080007831363070782070616E656C202A2A2AAB
:100090002A2A2A2A2A0D0A004C43444F4E0D0A00F0
:1000A0004C43444F46460D0A00444F4E450D0A004E
:1000B00046494C4C0D0A00494E49540D0A000D0AA0
:1000C00048444F545F5343525B50315D3D000D0A2D
:1000D0005343524F4C4C5B503350365D3D000D0A3C
:1000E0005359535F5345545B50312E2E385D3D00BC
:1000F0003C3C3C52532D464C5553483E3E3E00003E
:1001000011241FBECFE5D8E0DEBFCDBF20E0A0E6C2
:10011000B0E001C01D92A937B207E1F70E94B80311
:100120000C9417040C940000009751F0000000009C
:100130000000000000000000000000000197B1F77F
:100140000895CF93DF93EC01892B31F083EE93E098
:100150000E9494002197D1F7DF91CF910895CF931A
:1001600014BACFEFC5BBD998DC98DB9881E090E05A
:100170000E94940083B381E090E00E94940083B3D6
:10018000DB9AD99A14BAC5BB8074CF9108959FEFBA
:1001900094BB85BBD998DC98DA9881E090E00E9406
:1001A0009400DA9A81E090E00E949400D99A14BAFF
:1001B00001C000000E94AF008823D9F308959FEF8B
:1001C00094BB85BBD998DC9ADA9881E090E00E94D4
:1001D0009400DA9A81E090E00E949400D99A14BACF
:1001E00001C000000E94AF008823D9F30895CF9387
:1001F000DF938FEF85BB84BB8AB38F618ABB8BB3E0
:100200008F618BBB84E190E00E94A100D99ADB9AB8
:10021000DA9AD89885E090E00E94A100D89A8AE006
:1002200090E00E94A10080E40E94DF0080E30E9431
:10023000C70087E80E94C70087E00E94C70081E3EB
:100240000E94C70086E30E94C7008FE90E94C70092
:1002500082E30E94C70080E00E94C70084E40E94FD
:10026000DF0080E00E94C70080E00E94C7008FE9A5
:100270000E94C70080E00E94C70085E00E94C7007E
:100280008FE90E94C7008AE50E94DF0080E00E949B
:10029000C7008BE50E94DF0081E00E94C70088E56F
:1002A0000E94DF0084E10E94C7008DE50E94DF000C
:1002B00087E00E94C70087E80E94C7008CE40E9484
:1002C000DF0086E40E94DF0080E00E94C70080E03B
:1002D0000E94C70082E40E94DF00C0E0D0E080E01E
:1002E0000E94C7002196DAF789E50E94DF0084E1C9
:1002F0000E94C700DF91CF910895813039F489E5DC
:100300000E94DF0084E10E94C700089588E50E94F2
:10031000DF0080E00E94C7000895FF920F931F93B3
:10032000CF93DF93813049F0823019F50DC0812FD2
:100330000E94C7002197D9F71CC0C0E00F2EF0EB38
:10034000FF2EF02D04E005C0C5E06894FF24F7F807
:1003500005E2162F86E40E94DF0080E00E94C700BD
:100360008C2F0E94C70082E40E94DF00CF2DD02F87
:10037000DECFDF91CF911F910F91FF900895CF9322
:10038000DF93D82FC92F86E40E94DF008D2F0E94B3
:10039000C7008C2F0E94C700DF91CF9108951CB831
:1003A00089B99F7090BD862F83708BB9687F6AB9B9
:1003B000406840BD08955D9BFECF8CB90895CF93F2
:1003C000DF93EC012196FC018491882339F00E948F
:1003D000DB01FE01849121968111F9CFDF91CF914C
:1003E0000895CF93C82FE82FE295EF70F0E0EC5A14
:1003F000FF4F84910E94DB01CF70EC2FF0E0EC5AAC
:10040000FF4F84910E94DB01CF910895E1E6F0E077
:1004100089E790E01192E817F907E1F71092600080
:1004200080EF90E00E94DF01089590ED980F9A30E0
:1004300060F09FEB980F963010F4875308959FE972
:10044000980F963020F487550895892F08958FE0EE
:1004500008958DE00E94DB018AE00E94DB0108958F
:100460000F931F93CF9360E081E00E948D0180E0A5
:1004700090E00E94BF0182E40E94DF0081E20E94BE
:10048000C70000EB14E082E208C0C1E0C80F0E9480
:10049000C700CC230CF4C0E28C2F01501109A9F73E
:1004A000CF911F910F910895CF93DF93EC018FEFC0
:1004B00085BB84BB8AB38F618ABB8BB38F618BBBD7
:1004C00084E190E00E94A100D99ADB9ADA9AD89848
:1004D00085E090E00E94A100D89A8AE090E00E9416
:1004E000A1008EED90E00E94DF0180E40E94DF0019
:1004F00088810E94C70088810E94F10180E20E94E9
:10050000DB0189810E94C70089810E94F10180E29C
:100510000E94DB0187E00E94C70087E00E94F10192
:1005200080E20E94DB018A810E94C7008A810E94CA
:10053000F10180E20E94DB018B810E94C7008B8168
:100540000E94F10180E20E94DB018C810E94C700C1
:100550008C810E94F10180E20E94DB018D810E946A
:10056000C7008E810E94C7008D810E94F10180E248
:100570000E94DB018E810E94F1018EEC90E00E94CE
:10058000DF0184E40E94DF0080E00E94C70080E079
:100590000E94C7008F810E94C7008F810E94F101D5
:1005A00080E20E94DB0180E00E94C70085E00E949B
:1005B000C7008F810E94C7008EEB90E00E94DF0190
:1005C0008AE50E94DF0088850E94C70088850E9416
:1005D000F1010E9429028BE50E94DF0081E00E9468
:1005E000C70088E50E94DF0084E10E94C7008DE516
:1005F0000E94DF0087E00E94C70087E80E94C700D2
:100600008CE40E94DF0086E40E94DF0080E00E940C
:10061000C70080E00E94C70082E40E94DF00C0E0C3
:10062000D0E080E00E94C7002196DAF789E50E94B9
:10063000DF0084E10E94C700DF91CF9108959F926F
:10064000AF92BF92CF92DF92EF92FF920F931F93E0
:10065000CF93DF93CDB7DEB729970FB6F894DEBFFF
:100660000FBECDBF80916100833609F046C003E61E
:1006700010E0CE0101967C015E019AE0A90EB11C4A
:100680006701F801319780810E941502982EF801C8
:1006900080810E941502990C990C990C990C8F700D
:1006A0008929F60181936F010E5F1F4FEA15FB0543
:1006B00041F783E60E94DB01F70181917F010E94EF
:1006C000F101AE14BF04C1F78DE00E94DB018AE0A6
:1006D0000E94DB0187EB90E00E94DF01CE010196D2
:1006E0000E94540280EB90E00E94DF010E943002E1
:1006F00089EA90E00E94DF0127C0803729F50F2E9C
:10070000F1E6EF2EF0E0FF2EF02DF70181810E943F
:100710001502182FF70182810E941502F0E11F9F38
:10072000900111248F70282B41F480EA90E00E9400
:10073000DF0180E00E947D0107C088E990E00E940F
:10074000DF0181E00E947D010E94060229960FB61A
:10075000F894DEBF0FBECDBFDF91CF911F910F91F7
:10076000FF90EF90DF90CF90BF90AF909F90089553
:10077000B89A789446E068E989E190E00E94CF0158
:1007800084E690E00E94DF01C0980E94F70081E0BB
:100790000E947D01C09A0E943002C098C1E082E3AD
:1007A00090E00E94A10088B38C2788BB80916000F4
:1007B0008E3FA9F70E941F03F2CF1F920F920FB630
:1007C0000F9211242F933F934F935F936F937F93D7
:1007D0008F939F93AF93BF93EF93FF938CB18D3023
:1007E00021F48EEF8093600011C08B3119F40E94C8
:1007F00006020CC090916000983140F4E92FF0E0BF
:10080000EF59FF4F80839F5F90936000FF91EF91BE
:10081000BF91AF919F918F917F916F915F914F9118
:100820003F912F910F900FBE0F901F901895F89445
:02083000FFCFF8
:00000001FF
